:020000040800F2
:1000000000500020490700089907000899070008D8
:1000100099070008990700089907000800000000E8
:100020000000000000000000000000009907000828
:1000300099070008000000009907000899070008C8
:100040009907000899070008990700089907000810
:100050009907000899070008990700089907000800
:1000600099070008990700089907000899070008F0
:1000700099070008990700089907000899070008E0
:1000800099070008990700089907000899070008D0
:1000900099070008990700089907000899070008C0
:1000A00099070008990700089907000899070008B0
:1000B00099070008990700089907000899070008A0
:1000C0009907000899070008990700089907000890
:1000D0009907000899070008990700089907000880
:1000E0009907000899070008000000009907000818
:1000F0009907000899070008990700089907000860
:10010000990700089907000899070008990700084F
:10011000990700089907000899070008990700083F
:10012000990700089907000899070008990700082F
:100130000348044B834202D0034B03B11847704776
:100140000400002004000020000000000548064BC9
:100150001B1AD90F01EBA301491002D0034B03B1C5
:100160001847704704000020040000200000000031
:1001700010B5064C237843B9FFF7DAFF044B13B1EF
:100180000448AFF300800123237010BD0400002059
:10019000000000009C07000808B5044B1BB104498F
:1001A0000448AFF30080BDE80840CFE7000000003E
:1001B000080000209C07000870B50F4B0F4DAB42A4
:1001C000A3EB050607D00024B61055F8043B013414
:1001D0009847A642F9D800F0E1FA094D094B5E1B99
:1001E000AB424FEAA60606D0002455F8043B013482
:1001F0009847A642F9D870BD740800087408000832
:10020000740800087808000880B500AF00F050F9C5
:1002100000BFFDE780B400AF084B9B69074A43F479
:10022000804343F00D039361044BDB69034A43F0C1
:100230000103D36100BFBD4680BC7047001002407F
:1002400080B400AF2B4B1B682A4A23F00F031360C6
:10025000284B1B68274A43F004031360254B1B6897
:10026000244A23F470631360224B1B68214A43F431
:10027000007313601F4B1B681E4A23F070631360EA
:100280001C4B1B681B4A43F000731360194B5B68DF
:10029000184A23F0F0035360164B5B68154A43F08D
:1002A000B0035360134B5B68124A23F470635360CE
:1002B000104B5B680F4A43F4806353600E4B1B681E
:1002C0000D4A23F0F00313600B4B1B680A4A43F0FE
:1002D00020031360074B4FF480221A61054B4FF443
:1002E00080021A61044B4FF400321A6100BFBD4610
:1002F00080BC704700080140000C014080B400AF92
:10030000054B40F241329A60034B42F20802DA6038
:1003100000BFBD4680BC70470038014080B483B048
:1003200000AF0346FB7100BF064B1B6803F0800360
:10033000002BF9D0034AFB79536000BF0C37BD4650
:1003400080BC70470038014080B582B000AF786053
:1003500006E07B685A1C7A601B781846FFF7DEFFC0
:100360007B681B78002BF4D100BF00BF0837BD4667
:1003700080BD80B400AF4FF0804300221A604FF080
:10038000804341F63F729A624FF080434FF0FF3254
:10039000DA624FF0804300225A624FF0804301221C
:1003A0005A614FF0804300221A614FF080431B686E
:1003B0004FF0804243F00103136000BFBD4680BC94
:1003C000704780B400AF4FF080435B6A1846BD466B
:1003D00080BC704780B582B000AF78603960FFF7AD
:1003E000F0FF02467B68D31A3A689A4294BF012311
:1003F0000023DBB218460837BD4680BD80B400AF8D
:10040000034B04221A6100BFBD4680BC704700BF89
:100410000008014080B400AF034B4FF480221A6102
:1004200000BFBD4680BC70470008014080B400AFEB
:10043000034B40221A6100BFBD4680BC704700BF1D
:100440000008014080B400AF034B4FF480021A61F2
:1004500000BFBD4680BC70470008014080B400AFBB
:10046000034B02221A6100BFBD4680BC704700BF2B
:10047000000C014080B400AF034B4FF400321A610E
:1004800000BFBD4680BC7047000C014080B400AF87
:10049000064B9B6803F00103002B0CBF01230023D4
:1004A000DBB21846BD4680BC704700BF0008014063
:1004B00080B588B000AFFFF7ADFEFFF7C1FEFFF7D4
:1004C00058FFFFF71BFF5E48FFF73EFF0023FB7757
:1004D0000023BB7700237B77FFF773FFB861FFF73B
:1004E00070FF7861FFF76DFF3861FFF76AFFF86012
:1004F0000023FB720023BB7200237B7200233B723C
:10050000FFF75FFF7860FB7F002B24D14FF49671DB
:10051000B869FFF75FFF0346002B00F08F807B6810
:10052000BB617B7F002B04D1FFF780FF01237B772A
:1005300084E0FFF787FF00237B77BB7F0133BB7726
:10054000BB7F022B7AD90123FB77FFF757FF3D488A
:10055000FFF7FAFE72E00A217869FFF73BFF0346D6
:10056000002B3AD07B687B61FFF790FF0346002B9E
:1005700002D03B7A01333B727B7A01337B727B7A08
:10058000022B2AD9BB7AFB703B7A012B8CBF01234B
:100590000023DBB2BB7200237B7200233B72BB7A69
:1005A000002B09D0FB78002B06D12748FFF7CCFEA3
:1005B000FFF730FFFFF752FFBB7A002B0DD1FB781E
:1005C000002B0AD02148FFF7BFFEFFF73BFFFFF7E4
:1005D00015FFFFF74FFF0023FB72BB7A002B17D0EC
:1005E00050213869FFF7F6FE0346002B10D07B68D8
:1005F0003B61FB7A002B0CBF01230023DBB2FB72B3
:10060000FB7A002B02D0FFF711FF01E0FFF71AFF82
:100610004FF4FA61F868FFF7DDFE0346002B3FF464
:100620006FAF7B68FB60BB7A002B03D00848FFF7F5
:100630008BFE65E70748FFF787FE61E700BF5FE7CE
:10064000B4070008E4070008F807000814080008C9
:100650002C0800084808000880B400AF00BFBD4661
:1006600080BC704780B485B000AF0023FB600023DE
:10067000BB6000237B602F4B5B6803F00C03FB60C7
:10068000FB68082B11D0FB68082B3AD8FB68002BBD
:1006900003D0FB68042B04D033E0274B274A1A60B1
:1006A00033E0254B254A1A602FE0224B5B6803F4A8
:1006B0007013BB601F4B5B6803F480337B60BB68C7
:1006C0009B0C0233BB607B68002B06D1BB681C4AC5
:1006D00002FB03F3184A136017E0164B5B6803F440
:1006E0000033002B06D0BB68154A02FB03F3124A05
:1006F00013600AE0BB68114A02FB03F30E4A136061
:1007000003E00D4B0D4A1A6000BF0A4B5B681B09E2
:1007100003F00F030B4AD35CFB60074B1A68FB68BE
:1007200022FA03F3044A136000BF1437BD4680BCAD
:10073000704700BF001002400000002000127A0045
:1007400000093D005C0800080D488546FFF784FF5E
:100750000C480D490D4A002302E0D458C45004331C
:10076000C4188C42F9D30A4A0A4C002301E01360F2
:100770000432A242FBD3FFF71FFDFFF745FDFEE762
:100780000050002000000020040000207C08000829
:100790000400002020000020FEE70000F8B500BFA4
:1007A000F8BC08BC9E467047F8B500BFF8BC08BC52
:0407B0009E467047AA
:1007B4000D0A3D3D2053697374656D6120646520A5
:1007C400646574656363616F206465206761732089
:1007D400696E696369616E646F203D3D0D0A0000B6
:1007E40053697374656D612070726F6E746F2E0D32
:1007F4000A0000005B414C455254415D204761733F
:100804002064657465637461646F210D0A000000DF
:100814005B4F4B5D20416D6269656E7465206C6948
:100824006D706F2E0D0A00005B5354415455535D97
:10083400204761732070726573656E74652E0D0AAE
:10084400000000005B5354415455535D2053656DC3
:10085400206761732E0D0A000000000000000000F4
:100864000102030406070809000000000102030452
:0408740099010008DE
:040878007101000802
:04087C0000127A00EC
:04000005080007499F
:00000001FF
